S01300004175746F6D6174656453532E73726563C7
S11300000C9434000C9446000C9446000C94460066
S11300100C9446000C9446000C9446000C94460044
S11300200C9446000C9446000C9446000C94460034
S11300300C9446000C9446000C9446000C94460024
S11300400C9446000C9446000C9446000C94460014
S11300500C9446000C9446000C9446000C94460004
S11300600C9446000C94460011241FBECFEFD8E038
S1130070DEBFCDBF21E0A0E0B1E001C01D92A430FD
S1130080B207E1F70E9448000C946F010C94000041
S11300900E945D0089B1817080930101609100012B
S11300A0882331F0662321F070E090E00E946B0019
S11300B04B99F0CF0E94F200EDCF8AB180668AB9E5
S11300C08AB18AB987B18F6087B98BB180618BB9E6
S11300D080E090E008957DC02091020130910301F9
S11300E02F5F3F4F30930301209302019BB1906235
S11300F09BB998B1996098B998B198B92FE936E845
S113010091E0215030409040E1F700C0000098B1E8
S1130110986098B998B198B92FE936E891E02150E0
S113012030409040E1F700C0000098B19C6098B95D
S113013098B198B92FE936E891E0215030409040C9
S1130140E1F700C0000098B1946098B998B198B9EB
S11301502FE936E891E0215030409040E1F700C0AB
S1130160000098B1966098B998B198B92FE936E82B
S113017091E0215030409040E1F700C0000098B178
S1130180926098B998B198B92FE936E891E0215076
S113019030409040E1F700C0000098B1936098B9F6
S11301A098B198B92FE936E891E021503040904059
S11301B0E1F700C0000098B1916098B998B198B97E
S11301C02FE936E891E0215030409040E1F700C03B
S11301D00000882309F480CF8BB18F7D8BB980E038
S11301E090E008958091020190910301019790930A
S11301F00301809302018BB180628BB988B1816065
S113020088B988B188B92FE986E891E02150804007
S11302109040E1F700C0000088B1836088B988B1DC
S113022088B92FE986E891E0215080409040E1F7B9
S113023000C0000088B1826088B988B188B92FE90C
S113024086E891E0215080409040E1F700C0000032
S113025088B1866088B988B188B92FE986E891E0C9
S1130260215080409040E1F700C0000088B18460D4
S113027088B988B188B92FE986E891E02150804097
S11302809040E1F700C0000088B18C6088B988B163
S113029088B92FE986E891E0215080409040E1F749
S11302A000C0000088B1886088B988B188B92FE996
S11302B086E891E0215080409040E1F700C00000C2
S11302C088B1896088B988B188B92FE986E891E056
S11302D0215080409040E1F700C0000083CFF894A3
S10502E0FFCF4A
S9030000FC
